:100000000C9434000C9451000C9451000C94510049
:100010000C9451000C9451000C9451000C9451001C
:100020000C9451000C9463000C9451000C945100FA
:100030000C9451000C94C4000C9451000C94510089
:100040000C94D1010C9451000C941B010C945100A0
:100050000C94F2000C9451000C9451000C9451003B
:100060000C9451000C94510011241FBECFEFD4E02A
:10007000DEBFCDBF11E0A0E0B1E0EAE7F4E002C0EE
:1000800005900D92A630B107D9F711E0A6E0B1E0D6
:1000900001C01D92AF30B107E1F70E9453000C94EC
:1000A0003B020C9400000E9457010E9403020E9430
:1000B00070018091C10080698093C10045980E94C1
:1000C00062017894FFCF1F920F920FB60F92112406
:1000D0002F933F934F935F938F939F93AF93BF93D0
:1000E0008091020190910301A0910401B09105015A
:1000F0000097A105B10511F1209102013091030192
:1001000040910401509105018091070190910801EF
:10011000A0910901B0910A0182239323A423B5235E
:100120000097A105B10511F0449801C0449A85EDEE
:100130008093B20083B5826083BD05C081E0809367
:100140000D01109270008091020190910301A09125
:100150000401B0910501B695A79597958795809371
:10016000020190930301A0930401B0930501BF9194
:10017000AF919F918F915F914F913F912F910F90F0
:100180000FBE0F901F9018951F920F920FB60F92EF
:1001900011248F939F9380910D01882341F48BB19B
:1001A00092E089278BB98BB198E089278BB9809130
:1001B0000001833019F0843071F406C08BB198E0EF
:1001C00089278BB984E005C08BB198E089278BB96A
:1001D00082E0809300019F918F910F900FBE0F904E
:1001E0001F9018951F920F920FB60F9211248F93A4
:1001F0009F9380910001863019F08730A9F40BC0DD
:1002000087E08093000190910C0180910E01892775
:100210008093C60009C082E0809300018091C100F4
:10022000877B8093C10044989F918F910F900FBE60
:100230000F901F9018951F920F920FB60F921124D6
:100240008F939F9380910001813019F0853041F5A3
:100250000EC090910B018091C6009817E1F48BB10C
:1002600098E089278BB985E08093000119C09091AF
:100270000B018091C600981771F486E0809300010D
:100280008091C10088648093C100449A80910C01E0
:100290008093C60005C082E08093000110920101A6
:1002A0009F918F910F900FBE0F901F90189514B8CB
:1002B00088E385B990E397B983E088B98AE08AB981
:1002C0009BB9089591E090936E0085E085BD84E030
:1002D0008093810090936F0082E08093B100089535
:1002E0001092C50089E18093C40086E08093C2002B
:1002F000089593B186B129B1837080689873990F7E
:10030000892B30E02073307035952795822B089526
:10031000982F80910001823009F042C090930C0127
:100320008091C100877B8093C100599820910B0177
:1003300030E040E050E08BB198E089278BB9DA01DA
:10034000C9017BE0880F991FAA1FBB1F7A95D1F7BF
:10035000220F331F441F551F822B932BA42BB52B29
:10036000816094608093070190930801A093090134
:10037000B0930A0180E090E0A8E0B0E08093020131
:1003800090930301A0930401B093050185ED809340
:10039000B20083B5826083BD81E080937000B89A1B
:1003A00008951F920F920FB60F9211241F932F934F
:1003B0003F934F935F936F937F938F939F93AF93ED
:1003C000BF93EF93FF930E947901182F8091010151
:1003D000181739F00E94790180930101812F0E9442
:1003E0008801FF91EF91BF91AF919F918F917F9184
:1003F0006F915F914F913F912F911F910F900FBE81
:100400000F901F90189580E090E00E943302809337
:100410000E0181E090E00E9433025B9A20910E0170
:100420009AEA98272917A9F480910E0121E030E07B
:1004300002C0220F331F8A95E2F7220F215020932A
:100440000B0180910E018295880F807E80930601BA
:1004500008958091C100877B8093C100449859988A
:1004600010920D010895F999FECF92BD81BDF89AC1
:0A047000992780B50895F894FFCF96
:06047A0002FF0000080073
:00000001FF
