:100000000C9434000C9451000C9451000C94510049
:100010000C9451000C9451000C9451000C9451001C
:100020000C9451000C9463000C9451000C945100FA
:100030000C9451000C94C2000C9451000C9451008B
:100040000C94BE010C9451000C9419010C945100B5
:100050000C94F0000C9451000C9451000C9451003D
:100060000C9451000C94510011241FBECFEFD4E02A
:10007000DEBFCDBF11E0A0E0B1E0E4E5F4E002C0F6
:1000800005900D92A630B107D9F711E0A6E0B1E0D6
:1000900001C01D92AF30B107E1F70E9453000C94EC
:1000A00028020C9400000E9455010E94F0010E9459
:1000B0006E018091C10080698093C10045980E94C3
:1000C00060017894FFCF1F920F920FB60F92112408
:1000D0002F933F934F935F938F939F93AF93BF93D0
:1000E0008091020190910301A0910401B09105015A
:1000F0000097A105B10511F1209102013091030192
:1001000040910401509105018091070190910801EF
:10011000A0910901B0910A0182239323A423B5235E
:100120000097A105B10511F0449801C0449A85EDEE
:100130008093B20083B5826083BD03C081E0809369
:100140000D018091020190910301A0910401B091F1
:100150000501B695A7959795879580930201909391
:100160000301A0930401B0930501BF91AF919F914A
:100170008F915F914F913F912F910F900FBE0F90F4
:100180001F9018951F920F920FB60F9211248F9304
:100190009F9380910D01882341F48BB192E08927D0
:1001A0008BB98BB198E089278BB98091000183309E
:1001B00019F0843071F406C08BB198E089278BB9AF
:1001C00084E005C08BB198E089278BB982E08093E9
:1001D00000019F918F910F900FBE0F901F90189567
:1001E0001F920F920FB60F9211248F939F938091BD
:1001F0000001863019F08730A9F40BC087E08093A6
:10020000000190910C0180910E0189278093C60016
:1002100009C082E0809300018091C100877B8093B8
:10022000C10044989F918F910F900FBE0F901F9027
:1002300018951F920F920FB60F9211248F939F93D0
:1002400080910001813019F0853041F50EC0909108
:100250000B018091C6009817E1F48BB198E08927D3
:100260008BB985E08093000119C090910B018091BA
:10027000C600981771F486E0809300018091C10058
:1002800088648093C100449A80910C018093C600D9
:1002900005C082E080930001109201019F918F912F
:1002A0000F900FBE0F901F90189514B888E385B972
:1002B00090E397B983E088B98AE08AB99BB9089539
:1002C00091E090936E0085E085BD84E0809381008D
:1002D00090936F0082E08093B10008951092C50062
:1002E00089E18093C40086E08093C200089593B1B1
:1002F00086B129B1837080689873990F892B30E09B
:100300002073307035952795822B0895982F809112
:100310000001823091F590930C018091C100877BA0
:100320008093C100599880910B0190E0A0E0B0E06B
:100330009C01AD017BE0220F331F441F551F7A95AE
:10034000D1F7880F991FAA1FBB1F282B392B4A2BC7
:100350005B2B2160346020930701309308014093A8
:10036000090150930A0185ED8093B20083B5826044
:1003700083BD81E080937000B89A08951F920F9218
:100380000FB60F9211241F932F933F934F935F93B8
:100390006F937F938F939F93AF93BF93EF93FF934D
:1003A0000E947701182F80910101181739F00E94DF
:1003B000770180930101812F0E948601FF91EF91C7
:1003C000BF91AF919F918F917F916F915F914F916D
:1003D0003F912F911F910F900FBE0F901F90189576
:1003E00080E090E00E94200280930E0181E090E086
:1003F0000E9420025B9A20910E019AEA9827291701
:10040000A9F480910E0121E030E002C0220F331FD9
:100410008A95E2F7220F215020930B0180910E0163
:100420008295880F807E8093060108958091C10097
:10043000877B8093C1004498599810920D010895CC
:10044000F999FECF92BD81BDF89A992780B508959C
:04045000F894FFCF4E
:0604540002FF0000080099
:00000001FF
