:100000000C9434000C9446000C9446000C9446006A
:100010000C9446000C9446000C9446000C94460048
:100020000C9446000C9446000C9446000C94460038
:100030000C9446000C9452000C9446000C9446001C
:100040000C9483000C9446000C94B5000C9446006C
:100050000C940F010C9446000C9446000C9446003E
:100060000C9446000C94460011241FBECFEFD4E040
:10007000DEBFCDBF11E0A0E0B1E001C01D92A6300F
:10008000B107E1F70E9448000C948D010C94000028
:100090000E94DB000E9458010E94EF000E94E600CF
:1000A0007894FFCF1F920F920FB60F9211248F9367
:1000B0009F93809104018130A1F0813018F083304A
:1000C000D9F416C08BB198E089278BB982E0809370
:1000D00004018DE686BD1092000181E080936E00E0
:1000E0000BC08BB198E089278BB98BB192E002C02D
:1000F0008BB198E089278BB99F918F910F900FBE9C
:100100000F901F9018951F920F920FB60F92112407
:100110008F939F9380910001909105018F5F809351
:1001200000018150891791F48BB198E089278BB930
:100130008091C10088648093C100449A8091050138
:100140008093C60084E08093010106C08091000185
:1001500083FF02C0109200018DE686BD9F918F91B2
:100160000F900FBE0F901F9018951F920F920FB611
:100170000F9211248F939F938091C6008823A1F43E
:100180008091C1008F768093C100459A82E0809370
:1001900004018DE686BD1092000191E090936E00FF
:1001A00082E986BD909300019F918F910F900FBEC1
:1001B0000F901F90189514B888E385B990E397B90C
:1001C00083E088B988E08AB99BB9089584E0809378
:1001D000810081E080936F0085E085BD08951092D5
:1001E000C50089E18093C40086E08093C200089531
:1001F0008DE686BD1092000181E080936E00089527
:1002000093B186B129B1837080689873990F892B57
:1002100030E02073307035952795822B08951F921A
:100220000F920FB60F9211242F933F934F935F932A
:100230006F937F938F939F93AF93BF93EF93FF93AE
:1002400080910101853071F08630B9F08430F9F485
:100250000E94000180930201809102018093C600F8
:1002600085E008C080910201909105019827909344
:10027000C60086E0809301010AC08091C100877B9F
:100280008093C10044988BB198E089278BB9FF9186
:10029000EF91BF91AF919F918F917F916F915F91FE
:1002A0004F913F912F910F900FBE0F901F90189577
:1002B00080E090E00E9485018093050181E090E05C
:1002C0000E9485015B9A209105019AEA98272917D7
:1002D00089F480910501882319F41092040108958E
:1002E00083E0809304018091C10080698093C10004
:1002F000459808958091C100877F8093C100519AED
:10030000599881E0809304010895F999FECF92BD38
:0E03100081BDF89A992780B50895F894FFCF23
:00000001FF
