:100000000C9434000C9451000C9451000C94510049
:100010000C9451000C9451000C9451000C9451001C
:100020000C9451000C9463000C9451000C945100FA
:100030000C9451000C9492000C9451000C945100BB
:100040000C9442010C9451000C94CA000C94510081
:100050000C94C0000C9451000C9451000C9451006D
:100060000C9451000C94510011241FBECFEFD4E02A
:10007000DEBFCDBF11E0A0E0B1E0E2E4F3E002C0FA
:1000800005900D92A230B107D9F711E0A2E0B1E0DE
:1000900001C01D92A730B107E1F70E9453000C94F4
:1000A0009F010C9400000E94F8000E9474010E94BD
:1000B00011018091C10080698093C10045980E9420
:1000C00003017894FFCF1F920F920FB60F92112465
:1000D0008F939F93809102018052809302018091BF
:1000E0000201882391F09091020180910301891708
:1000F00010F0449803C00000000000008BEC8093D7
:10010000B20083B5826083BD06C0449881E08093CD
:100110000001109270009F918F910F900FBE0F9071
:100120001F9018951F920F920FB60F9211248F9364
:100130009F9380910501882341F48BB192E0892738
:100140008BB98BB198E089278BB9809100018330FE
:1001500019F0843071F406C08BB198E089278BB90F
:1001600084E005C08BB198E089278BB982E0809349
:1001700000019F918F910F900FBE0F901F901895C7
:100180001F920F920FB60F9211240F900FBE0F9077
:100190001F9018951F920F920FB60F9211242F9354
:1001A0003F938F939F93809100018130C1F48091A0
:1001B00006019091C60021E030E002C0220F331FFB
:1001C0008A95E2F7220F2150291731F48BB198E07C
:1001D00089278BB982E001C083E0809300019F9161
:1001E0008F913F912F910F900FBE0F901F901895F8
:1001F00014B888E385B990E397B983E088B98AE0B9
:100200008AB99BB9089591E090936E0085E085BD11
:1002100084E08093810090936F0082E08093B1002E
:1002200008951092C50089E18093C40086E0809310
:10023000C200089593B186B129B183708068987324
:10024000990F892B30E02073307035952795822BDC
:100250000895982F80910001823099F490930401C1
:100260008091C100877B8093C10059988BEC80936B
:10027000B20083B5826083BD81E080937000B89A3C
:10028000449A08951F920F920FB60F9211241F9354
:100290002F933F934F935F936F937F938F939F938E
:1002A000AF93BF93EF93FF930E941A01182F809191
:1002B0000101181739F00E941A0180930101812F62
:1002C0000E942901FF91EF91BF91AF919F918F9172
:1002D0007F916F915F914F913F912F911F910F905F
:1002E0000FBE0F901F90189580E090E00E9497013C
:1002F0008093060181E090E00E9497015B9A209133
:1003000006019AEA9827291741F4809106018295FF
:10031000880F807E8093030108958091C100877BC0
:100320008093C10044985998109205010895F99955
:10033000FECF92BD81BDF89A992780B50895F894B3
:02034000FFCFED
:0203420002FFB8
:00000001FF
