:100000000C9434000C9446000C9446000C9446006A
:100010000C9446000C9446000C9446000C94460048
:100020000C9446000C9446000C9446000C94460038
:100030000C9446000C9448000C9446000C94460026
:100040000C945A000C9446000C9479000C944600D1
:100050000C9464000C9446000C9446000C944600EA
:100060000C9446000C94460011241FBECFEFD4E040
:10007000DEBFCDBF11E0A0E0B1E001C01D92A13014
:10008000B107E1F70E94B1000C94C4000C94000089
:100090001F920F920FB60F9211248F939F938BB1E3
:1000A00098E089278BB99F918F910F900FBE0F9089
:1000B0001F9018951F920F920FB60F9211240F9058
:1000C0000FBE0F901F9018951F920F920FB60F92B0
:1000D00011248F93809100018093C60080910001CC
:1000E0008F5F809300018F910F900FBE0F901F9034
:1000F00018951F920F920FB60F9211240F900FBEFA
:100100000F901F90189514B888E385B990E397B9BC
:1001100083E088B988E08AB99BB9089584E0809328
:10012000810081E080936F0085E085BD089508958A
:100130001092C50089E18093C40086E08093C200DC
:100140000895089593B186B129B18370806898733A
:10015000990F892B30E02073307035952795822BCD
:1001600008950E9483000E9497000E9498000E94B8
:100170008E0078948091C10088648093C100449A75
:0C0180008FEF8093C600FFCFF894FFCFF4
:00000001FF
