:100000000C9434000C9446000C9446000C9446006A
:100010000C9446000C9446000C9446000C94460048
:100020000C9446000C9446000C9446000C94460038
:100030000C9446000C9452000C9446000C9446001C
:100040000C947E000C9446000C9446000C944600E0
:100050000C94E3000C9446000C9446000C9446006B
:100060000C9446000C94460011241FBECFEFD4E040
:10007000DEBFCDBF11E0A0E0B1E001C01D92A6300F
:10008000B107E1F70E9448000C9455010C94000060
:100090000E94B0000E9420010E94C4000E94BB0088
:1000A0007894FFCF1F920F920FB60F9211248F9367
:1000B0009F9380910401882319F08130C1F40FC00F
:1000C0008BB198E089278BB982E0809304018EE799
:1000D00086BD1092000181E080936E0008C08BB154
:1000E00098E089278BB98BB192E089278BB99F91D2
:1000F0008F910F900FBE0F901F9018951F920F9227
:100100000FB60F9211248F939F93809100019091CD
:1001100005018F5F809300018150891791F48BB1A5
:1001200098E089278BB98091C10088648093C100D1
:10013000449A809105018093C60084E08093010178
:1001400006C08091000183FF02C0109200018EE77B
:1001500086BD9F918F910F900FBE0F901F901895A5
:1001600014B888E385B990E397B983E088B988E04B
:100170008AB99BB9089584E08093810081E08093DF
:100180006F0085E085BD08951092C50089E18093D8
:10019000C40086E08093C20008958EE786BD109269
:1001A000000181E080936E00089583B196B129B17A
:1001B0008873880F9370892B30E0207330703595E9
:1001C0002795822B08951F920F920FB60F9211243C
:1001D0002F933F934F935F936F937F938F939F934F
:1001E000AF93BF93EF93FF9380910101843019F097
:1001F0008530A9F40AC00E94D50080930201809145
:1002000002018093C60085E008C0809102019091B0
:10021000050198279093C60086E080930101FF9125
:10022000EF91BF91AF919F918F917F916F915F916E
:100230004F913F912F910F900FBE0F901F901895E7
:1002400081E090E00E944D018093050180E090E004
:100250000E944D015B9A209105019AEA982729177F
:1002600089F480910501882319F4109204010895FE
:1002700083E0809304018091C10080698093C10074
:10028000459808958091C100877F8093C100519A5D
:10029000599881E0809304010895F999FECF92BDA9
:0E02A00081BDF89A992780B50895F894FFCF94
:00000001FF
