:1000000019C020C01FC01EC01DC01CC01BC01AC00C
:1000100019C018C017C016C015C018C013C012C030
:1000200011C010C00FC00EC00DC00CC00BC00AC064
:1000300009C008C011241FBECFEFD2E0DEBFCDBF84
:1000400002D025C0DDCF14D01AD0FFCF1F920F925F
:100050000FB60F9211248F939F938BB198E089274D
:100060008BB99F918F910F900FBE0F901F90189595
:1000700080E387B918B888E08AB91BB8089584E08E
:100080008093810081E080936F0078940895F894C4
:02009000FFCFA0
:00000001FF
