:100000000C941A000C9424000C9424000C942400EA
:100010000C9424000C9424000C9424000C942400D0
:100020000C9424000C9424000C9424000C942400C0
:100030000C94240011241FBECFEFD4E0DEBFCDBF4F
:100040000E9426000C944C000C9400000E943D007D
:100050000E944400FFCF1F920F920FB60F921124FF
:100060008F939F938BB198E089278BB99F918F9144
:100070000F900FBE0F901F90189580E387B918B8A6
:1000800088E08AB91BB8089584E08093810081E0FC
:0C00900080936F0078940895F894FFCFDF
:00000001FF
